{
  "_format": "hh-sol-artifact-1",
  "contractName": "Verify",
  "sourceName": "contracts/verify.sol",
  "abi": [
    {
      "inputs": [
        {
          "internalType": "address",
          "name": "_nodeContract",
          "type": "address"
        },
        {
          "internalType": "address",
          "name": "_mainContract",
          "type": "address"
        }
      ],
      "stateMutability": "nonpayable",
      "type": "constructor"
    },
    {
      "anonymous": false,
      "inputs": [
        {
          "indexed": true,
          "internalType": "address",
          "name": "nodeAddress",
          "type": "address"
        },
        {
          "indexed": false,
          "internalType": "bool",
          "name": "newStatus",
          "type": "bool"
        }
      ],
      "name": "HireableStatusUpdated",
      "type": "event"
    },
    {
      "anonymous": false,
      "inputs": [
        {
          "indexed": true,
          "internalType": "address",
          "name": "nodeAddress",
          "type": "address"
        },
        {
          "indexed": false,
          "internalType": "address",
          "name": "owner",
          "type": "address"
        }
      ],
      "name": "NodeCreated",
      "type": "event"
    },
    {
      "anonymous": false,
      "inputs": [
        {
          "indexed": true,
          "internalType": "address",
          "name": "nodeAddress",
          "type": "address"
        },
        {
          "indexed": false,
          "internalType": "uint256",
          "name": "refundAmount",
          "type": "uint256"
        }
      ],
      "name": "NodeQuit",
      "type": "event"
    },
    {
      "stateMutability": "payable",
      "type": "fallback"
    },
    {
      "inputs": [
        {
          "internalType": "address",
          "name": "_node",
          "type": "address"
        },
        {
          "internalType": "string[]",
          "name": "_abilities",
          "type": "string[]"
        },
        {
          "internalType": "address",
          "name": "_owner",
          "type": "address"
        }
      ],
      "name": "createNode",
      "outputs": [],
      "stateMutability": "nonpayable",
      "type": "function"
    },
    {
      "inputs": [
        {
          "internalType": "address",
          "name": "_node",
          "type": "address"
        }
      ],
      "name": "getNode",
      "outputs": [
        {
          "internalType": "string[]",
          "name": "",
          "type": "string[]"
        },
        {
          "internalType": "bool",
          "name": "",
          "type": "bool"
        },
        {
          "internalType": "address",
          "name": "",
          "type": "address"
        }
      ],
      "stateMutability": "view",
      "type": "function"
    },
    {
      "inputs": [],
      "name": "mainContract",
      "outputs": [
        {
          "internalType": "address",
          "name": "",
          "type": "address"
        }
      ],
      "stateMutability": "view",
      "type": "function"
    },
    {
      "inputs": [],
      "name": "nodeContract",
      "outputs": [
        {
          "internalType": "address",
          "name": "",
          "type": "address"
        }
      ],
      "stateMutability": "view",
      "type": "function"
    },
    {
      "inputs": [
        {
          "internalType": "address",
          "name": "_node",
          "type": "address"
        }
      ],
      "name": "quit",
      "outputs": [],
      "stateMutability": "nonpayable",
      "type": "function"
    },
    {
      "inputs": [
        {
          "internalType": "address",
          "name": "_node",
          "type": "address"
        }
      ],
      "name": "updateHireableStatus",
      "outputs": [],
      "stateMutability": "nonpayable",
      "type": "function"
    },
    {
      "stateMutability": "payable",
      "type": "receive"
    }
  ],
  "bytecode": "0x60806040523480156200001157600080fd5b506040516200191b3803806200191b83398181016040528101906200003791906200012b565b81600260006101000a81548173ffffffffffffffffffffffffffffffffffffffff021916908373ffffffffffffffffffffffffffffffffffffffff16021790555080600360006101000a81548173ffffffffffffffffffffffffffffffffffffffff021916908373ffffffffffffffffffffffffffffffffffffffff160217905550505062000172565b600080fd5b600073ffffffffffffffffffffffffffffffffffffffff82169050919050565b6000620000f382620000c6565b9050919050565b6200010581620000e6565b81146200011157600080fd5b50565b6000815190506200012581620000fa565b92915050565b60008060408385031215620001455762000144620000c1565b5b6000620001558582860162000114565b9250506020620001688582860162000114565b9150509250929050565b61179980620001826000396000f3fe6080604052600436106100595760003560e01c8063070bf4a5146100625780639d2090481461008b578063b237e880146100ca578063d270e7ab146100f5578063d32b91dd14610120578063f72d40e61461014957610060565b3661006057005b005b34801561006e57600080fd5b5061008960048036038101906100849190610e7b565b610172565b005b34801561009757600080fd5b506100b260048036038101906100ad9190610e7b565b6104b2565b6040516100c193929190611024565b60405180910390f35b3480156100d657600080fd5b506100df610703565b6040516100ec9190611062565b60405180910390f35b34801561010157600080fd5b5061010a610729565b6040516101179190611062565b60405180910390f35b34801561012c57600080fd5b5061014760048036038101906101429190610e7b565b61074f565b005b34801561015557600080fd5b50610170600480360381019061016b9190611298565b610b08565b005b80600160008273ffffffffffffffffffffffffffffffffffffffff1673ffffffffffffffffffffffffffffffffffffffff16815260200190815260200160002060009054906101000a900460ff166101ff576040517f08c379a00000000000000000000000000000000000000000000000000000000081526004016101f690611364565b60405180910390fd5b6000600260009054906101000a900473ffffffffffffffffffffffffffffffffffffffff1673ffffffffffffffffffffffffffffffffffffffff1663a1903eab846040518263ffffffff1660e01b815260040161025c9190611062565b602060405180830381865afa158015610279573d6000803e3d6000fd5b505050506040513d601f19601f8201168201806040525081019061029d91906113b0565b90506000600260009054906101000a900473ffffffffffffffffffffffffffffffffffffffff1673ffffffffffffffffffffffffffffffffffffffff16637b31eaea856040518263ffffffff1660e01b81526004016102fc9190611062565b602060405180830381865afa158015610319573d6000803e3d6000fd5b505050506040513d601f19601f8201168201806040525081019061033d91906113b0565b905081801561034a575080155b156103ae5760008060008673ffffffffffffffffffffffffffffffffffffffff1673ffffffffffffffffffffffffffffffffffffffff16815260200190815260200160002060010160006101000a81548160ff021916908315150217905550610410565b801561040f5760016000808673ffffffffffffffffffffffffffffffffffffffff1673ffffffffffffffffffffffffffffffffffffffff16815260200190815260200160002060010160006101000a81548160ff0219169083151502179055505b5b8373ffffffffffffffffffffffffffffffffffffffff167f51a2bc923a06ef7a0080be8ca606d92ebd59aa764975fadcfa24d4600c2a1f226000808773ffffffffffffffffffffffffffffffffffffffff1673ffffffffffffffffffffffffffffffffffffffff16815260200190815260200160002060010160009054906101000a900460ff166040516104a491906113dd565b60405180910390a250505050565b606060008083600160008273ffffffffffffffffffffffffffffffffffffffff1673ffffffffffffffffffffffffffffffffffffffff16815260200190815260200160002060009054906101000a900460ff16610544576040517f08c379a000000000000000000000000000000000000000000000000000000000815260040161053b90611364565b60405180910390fd5b60008060008773ffffffffffffffffffffffffffffffffffffffff1673ffffffffffffffffffffffffffffffffffffffff16815260200190815260200160002060405180608001604052908160008201805480602002602001604051908101604052809291908181526020016000905b828210156106605783829060005260206000200180546105d390611427565b80601f01602080910402602001604051908101604052809291908181526020018280546105ff90611427565b801561064c5780601f106106215761010080835404028352916020019161064c565b820191906000526020600020905b81548152906001019060200180831161062f57829003601f168201915b5050505050815260200190600101906105b4565b5050505081526020016001820160009054906101000a900460ff16151515158152602001600282015481526020016003820160009054906101000a900473ffffffffffffffffffffffffffffffffffffffff1673ffffffffffffffffffffffffffffffffffffffff1673ffffffffffffffffffffffffffffffffffffffff1681525050905080600001518160200151826060015194509450945050509193909250565b600260009054906101000a900473ffffffffffffffffffffffffffffffffffffffff1681565b600360009054906101000a900473ffffffffffffffffffffffffffffffffffffffff1681565b80600160008273ffffffffffffffffffffffffffffffffffffffff1673ffffffffffffffffffffffffffffffffffffffff16815260200190815260200160002060009054906101000a900460ff166107dc576040517f08c379a00000000000000000000000000000000000000000000000000000000081526004016107d390611364565b60405180910390fd5b60008060008473ffffffffffffffffffffffffffffffffffffffff1673ffffffffffffffffffffffffffffffffffffffff16815260200190815260200160002090506000600360009054906101000a900473ffffffffffffffffffffffffffffffffffffffff1673ffffffffffffffffffffffffffffffffffffffff166351cff8d9856040518263ffffffff1660e01b815260040161087b9190611062565b6020604051808303816000875af115801561089a573d6000803e3d6000fd5b505050506040513d601f19601f820116820180604052508101906108be919061148e565b90508160030160009054906101000a900473ffffffffffffffffffffffffffffffffffffffff1673ffffffffffffffffffffffffffffffffffffffff166108fc829081150290604051600060405180830381858888f1935050505015801561092a573d6000803e3d6000fd5b508373ffffffffffffffffffffffffffffffffffffffff167ff56b227586b155843cae07287c7ffcfd07a00db5564a68506072a35cdf179de28260405161097191906114ca565b60405180910390a2600260009054906101000a900473ffffffffffffffffffffffffffffffffffffffff1673ffffffffffffffffffffffffffffffffffffffff16637b31eaea856040518263ffffffff1660e01b81526004016109d49190611062565b602060405180830381865afa1580156109f1573d6000803e3d6000fd5b505050506040513d601f19601f82011682018060405250810190610a1591906113b0565b506000808573ffffffffffffffffffffffffffffffffffffffff1673ffffffffffffffffffffffffffffffffffffffff16815260200190815260200160002060008082016000610a659190610d0e565b6001820160006101000a81549060ff021916905560028201600090556003820160006101000a81549073ffffffffffffffffffffffffffffffffffffffff021916905550506000600160008673ffffffffffffffffffffffffffffffffffffffff1673ffffffffffffffffffffffffffffffffffffffff16815260200190815260200160002060006101000a81548160ff02191690831515021790555050505050565b600160008473ffffffffffffffffffffffffffffffffffffffff1673ffffffffffffffffffffffffffffffffffffffff16815260200190815260200160002060009054906101000a900460ff16610d09576040518060800160405280838152602001600115158152602001600081526020018273ffffffffffffffffffffffffffffffffffffffff168152506000808573ffffffffffffffffffffffffffffffffffffffff1673ffffffffffffffffffffffffffffffffffffffff1681526020019081526020016000206000820151816000019080519060200190610bee929190610d2f565b5060208201518160010160006101000a81548160ff0219169083151502179055506040820151816002015560608201518160030160006101000a81548173ffffffffffffffffffffffffffffffffffffffff021916908373ffffffffffffffffffffffffffffffffffffffff16021790555090505060018060008573ffffffffffffffffffffffffffffffffffffffff1673ffffffffffffffffffffffffffffffffffffffff16815260200190815260200160002060006101000a81548160ff0219169083151502179055508273ffffffffffffffffffffffffffffffffffffffff167fc503d6de4e943f746e1f7700e3c6faf7d93c049ded69b4b4796fed306f044cbc82604051610d009190611062565b60405180910390a25b505050565b5080546000825590600052602060002090810190610d2c9190610d88565b50565b828054828255906000526020600020908101928215610d77579160200282015b82811115610d76578251829081610d669190611691565b5091602001919060010190610d4f565b5b509050610d849190610d88565b5090565b5b80821115610da85760008181610d9f9190610dac565b50600101610d89565b5090565b508054610db890611427565b6000825580601f10610dca5750610de9565b601f016020900490600052602060002090810190610de89190610dec565b5b50565b5b80821115610e05576000816000905550600101610ded565b5090565b6000604051905090565b600080fd5b600080fd5b600073ffffffffffffffffffffffffffffffffffffffff82169050919050565b6000610e4882610e1d565b9050919050565b610e5881610e3d565b8114610e6357600080fd5b50565b600081359050610e7581610e4f565b92915050565b600060208284031215610e9157610e90610e13565b5b6000610e9f84828501610e66565b91505092915050565b600081519050919050565b600082825260208201905092915050565b6000819050602082019050919050565b600081519050919050565b600082825260208201905092915050565b60005b83811015610f0e578082015181840152602081019050610ef3565b60008484015250505050565b6000601f19601f8301169050919050565b6000610f3682610ed4565b610f408185610edf565b9350610f50818560208601610ef0565b610f5981610f1a565b840191505092915050565b6000610f708383610f2b565b905092915050565b6000602082019050919050565b6000610f9082610ea8565b610f9a8185610eb3565b935083602082028501610fac85610ec4565b8060005b85811015610fe85784840389528151610fc98582610f64565b9450610fd483610f78565b925060208a01995050600181019050610fb0565b50829750879550505050505092915050565b60008115159050919050565b61100f81610ffa565b82525050565b61101e81610e3d565b82525050565b6000606082019050818103600083015261103e8186610f85565b905061104d6020830185611006565b61105a6040830184611015565b949350505050565b60006020820190506110776000830184611015565b92915050565b600080fd5b7f4e487b7100000000000000000000000000000000000000000000000000000000600052604160045260246000fd5b6110ba82610f1a565b810181811067ffffffffffffffff821117156110d9576110d8611082565b5b80604052505050565b60006110ec610e09565b90506110f882826110b1565b919050565b600067ffffffffffffffff82111561111857611117611082565b5b602082029050602081019050919050565b600080fd5b600080fd5b600067ffffffffffffffff82111561114e5761114d611082565b5b61115782610f1a565b9050602081019050919050565b82818337600083830152505050565b600061118661118184611133565b6110e2565b9050828152602081018484840111156111a2576111a161112e565b5b6111ad848285611164565b509392505050565b600082601f8301126111ca576111c961107d565b5b81356111da848260208601611173565b91505092915050565b60006111f66111f1846110fd565b6110e2565b9050808382526020820190506020840283018581111561121957611218611129565b5b835b8181101561126057803567ffffffffffffffff81111561123e5761123d61107d565b5b80860161124b89826111b5565b8552602085019450505060208101905061121b565b5050509392505050565b600082601f83011261127f5761127e61107d565b5b813561128f8482602086016111e3565b91505092915050565b6000806000606084860312156112b1576112b0610e13565b5b60006112bf86828701610e66565b935050602084013567ffffffffffffffff8111156112e0576112df610e18565b5b6112ec8682870161126a565b92505060406112fd86828701610e66565b9150509250925092565b600082825260208201905092915050565b7f4e6f64652062756c756e616d6164690000000000000000000000000000000000600082015250565b600061134e600f83611307565b915061135982611318565b602082019050919050565b6000602082019050818103600083015261137d81611341565b9050919050565b61138d81610ffa565b811461139857600080fd5b50565b6000815190506113aa81611384565b92915050565b6000602082840312156113c6576113c5610e13565b5b60006113d48482850161139b565b91505092915050565b60006020820190506113f26000830184611006565b92915050565b7f4e487b7100000000000000000000000000000000000000000000000000000000600052602260045260246000fd5b6000600282049050600182168061143f57607f821691505b602082108103611452576114516113f8565b5b50919050565b6000819050919050565b61146b81611458565b811461147657600080fd5b50565b60008151905061148881611462565b92915050565b6000602082840312156114a4576114a3610e13565b5b60006114b284828501611479565b91505092915050565b6114c481611458565b82525050565b60006020820190506114df60008301846114bb565b92915050565b60008190508160005260206000209050919050565b60006020601f8301049050919050565b600082821b905092915050565b6000600883026115477fffffffffffffffffffffffffffffffffffffffffffffffffffffffffffffffff8261150a565b611551868361150a565b95508019841693508086168417925050509392505050565b6000819050919050565b600061158e61158961158484611458565b611569565b611458565b9050919050565b6000819050919050565b6115a883611573565b6115bc6115b482611595565b848454611517565b825550505050565b600090565b6115d16115c4565b6115dc81848461159f565b505050565b5b81811015611600576115f56000826115c9565b6001810190506115e2565b5050565b601f82111561164557611616816114e5565b61161f846114fa565b8101602085101561162e578190505b61164261163a856114fa565b8301826115e1565b50505b505050565b600082821c905092915050565b60006116686000198460080261164a565b1980831691505092915050565b60006116818383611657565b9150826002028217905092915050565b61169a82610ed4565b67ffffffffffffffff8111156116b3576116b2611082565b5b6116bd8254611427565b6116c8828285611604565b600060209050601f8311600181146116fb57600084156116e9578287015190505b6116f38582611675565b86555061175b565b601f198416611709866114e5565b60005b828110156117315784890151825560018201915060208501945060208101905061170c565b8683101561174e578489015161174a601f891682611657565b8355505b6001600288020188555050505b50505050505056fea2646970667358221220d34c3390cdbfa007a8cbe6518b1c1f069c3738d2ad0f5b6ce81f93ac6efde68a64736f6c63430008130033",
  "linkReferences": {},
  "deployedLinkReferences": {}
}